{
  "contractName": "TodoContract",
  "abi": [
    {
      "anonymous": false,
      "inputs": [
        {
          "indexed": false,
          "internalType": "string",
          "name": "task",
          "type": "string"
        },
        {
          "indexed": false,
          "internalType": "uint256",
          "name": "taskNumber",
          "type": "uint256"
        }
      ],
      "name": "TaskCreated",
      "type": "event"
    },
    {
      "anonymous": false,
      "inputs": [
        {
          "indexed": false,
          "internalType": "uint256",
          "name": "taskNumber",
          "type": "uint256"
        }
      ],
      "name": "TaskDeleted",
      "type": "event"
    },
    {
      "anonymous": false,
      "inputs": [
        {
          "indexed": false,
          "internalType": "string",
          "name": "task",
          "type": "string"
        },
        {
          "indexed": false,
          "internalType": "uint256",
          "name": "taskId",
          "type": "uint256"
        },
        {
          "indexed": false,
          "internalType": "bool",
          "name": "isComplete",
          "type": "bool"
        }
      ],
      "name": "TaskIsCompleteToggled",
      "type": "event"
    },
    {
      "anonymous": false,
      "inputs": [
        {
          "indexed": false,
          "internalType": "string",
          "name": "task",
          "type": "string"
        },
        {
          "indexed": false,
          "internalType": "uint256",
          "name": "taskId",
          "type": "uint256"
        }
      ],
      "name": "TaskUpdated",
      "type": "event"
    },
    {
      "constant": true,
      "inputs": [],
      "name": "taskCount",
      "outputs": [
        {
          "internalType": "uint256",
          "name": "",
          "type": "uint256"
        }
      ],
      "payable": false,
      "stateMutability": "view",
      "type": "function"
    },
    {
      "constant": true,
      "inputs": [
        {
          "internalType": "uint256",
          "name": "",
          "type": "uint256"
        }
      ],
      "name": "todos",
      "outputs": [
        {
          "internalType": "uint256",
          "name": "index",
          "type": "uint256"
        },
        {
          "internalType": "string",
          "name": "taskName",
          "type": "string"
        },
        {
          "internalType": "bool",
          "name": "isComplete",
          "type": "bool"
        }
      ],
      "payable": false,
      "stateMutability": "view",
      "type": "function"
    },
    {
      "constant": false,
      "inputs": [
        {
          "internalType": "string",
          "name": "_taskName",
          "type": "string"
        }
      ],
      "name": "createTask",
      "outputs": [],
      "payable": false,
      "stateMutability": "nonpayable",
      "type": "function"
    },
    {
      "constant": false,
      "inputs": [
        {
          "internalType": "uint256",
          "name": "_taskId",
          "type": "uint256"
        },
        {
          "internalType": "string",
          "name": "_taskName",
          "type": "string"
        }
      ],
      "name": "updateTask",
      "outputs": [],
      "payable": false,
      "stateMutability": "nonpayable",
      "type": "function"
    },
    {
      "constant": false,
      "inputs": [
        {
          "internalType": "uint256",
          "name": "_taskId",
          "type": "uint256"
        }
      ],
      "name": "deleteTask",
      "outputs": [],
      "payable": false,
      "stateMutability": "nonpayable",
      "type": "function"
    },
    {
      "constant": false,
      "inputs": [
        {
          "internalType": "uint256",
          "name": "_taskId",
          "type": "uint256"
        }
      ],
      "name": "toggleComplete",
      "outputs": [],
      "payable": false,
      "stateMutability": "nonpayable",
      "type": "function"
    }
  ],
  "bytecode": "0x60806040526000805534801561001457600080fd5b50610b30806100246000396000f3fe608060405234801561001057600080fd5b50600436106100625760003560e01c80630951e5bd14610067578063111002aa14610095578063560f31921461015057806386533f6c1461017e578063b6cb58a514610243578063bc8bc2b414610261575b600080fd5b6100936004803603602081101561007d57600080fd5b810190808035906020019092919050505061031a565b005b61014e600480360360208110156100ab57600080fd5b81019080803590602001906401000000008111156100c857600080fd5b8201836020820111156100da57600080fd5b803590602001918460018302840111640100000000831117156100fc57600080fd5b91908080601f016020809104026020016040519081016040528093929190818152602001838380828437600081840152601f19601f820116905080830192505050505050509192919290505050610549565b005b61017c6004803603602081101561016657600080fd5b8101908080359060200190929190505050610684565b005b6102416004803603604081101561019457600080fd5b8101908080359060200190929190803590602001906401000000008111156101bb57600080fd5b8201836020820111156101cd57600080fd5b803590602001918460018302840111640100000000831117156101ef57600080fd5b91908080601f016020809104026020016040519081016040528093929190818152602001838380828437600081840152601f19601f820116905080830192505050505050509192919290505050610700565b005b61024b610916565b6040518082815260200191505060405180910390f35b61028d6004803603602081101561027757600080fd5b810190808035906020019092919050505061091c565b604051808481526020018060200183151515158152602001828103825284818151815260200191508051906020019080838360005b838110156102dd5780820151818401526020810190506102c2565b50505050905090810190601f16801561030a5780820380516001836020036101000a031916815260200191505b5094505050505060405180910390f35b6103226109eb565b6001600083815260200190815260200160002060405180606001604052908160008201548152602001600182018054600181600116156101000203166002900480601f0160208091040260200160405190810160405280929190818152602001828054600181600116156101000203166002900480156103e35780601f106103b8576101008083540402835291602001916103e3565b820191906000526020600020905b8154815290600101906020018083116103c657829003601f168201915b505050505081526020016002820160009054906101000a900460ff1615151515815250509050604051806060016040528083815260200182602001518152602001826040015115151581525060016000848152602001908152602001600020600082015181600001556020820151816001019080519060200190610468929190610a0e565b5060408201518160020160006101000a81548160ff0219169083151502179055509050507f21d25b1182ece704b24eedd00ef3879b75f4bd2e9a3137cfde0c6405b28ce78c816020015183836040015115604051808060200184815260200183151515158152602001828103825285818151815260200191508051906020019080838360005b838110156105095780820151818401526020810190506104ee565b50505050905090810190601f1680156105365780820380516001836020036101000a031916815260200191505b5094505050505060405180910390a15050565b604051806060016040528060005481526020018281526020016000151581525060016000805481526020019081526020016000206000820151816000015560208201518160010190805190602001906105a3929190610a0e565b5060408201518160020160006101000a81548160ff02191690831515021790555090505060008081548092919060010191905055507fed1d390c812a65783a09786b88b832ef75bb16882fbc56eeea9bf61a4c1a8ac7816001600054036040518080602001838152602001828103825284818151815260200191508051906020019080838360005b8381101561064657808201518184015260208101905061062b565b50505050905090810190601f1680156106735780820380516001836020036101000a031916815260200191505b50935050505060405180910390a150565b600160008281526020019081526020016000206000808201600090556001820160006106b09190610a8e565b6002820160006101000a81549060ff021916905550507fd078b251d950cc55c44340be1db732337ef4939a76e1367ee271ad2cb19c46af816040518082815260200191505060405180910390a150565b6107086109eb565b6001600084815260200190815260200160002060405180606001604052908160008201548152602001600182018054600181600116156101000203166002900480601f0160208091040260200160405190810160405280929190818152602001828054600181600116156101000203166002900480156107c95780601f1061079e576101008083540402835291602001916107c9565b820191906000526020600020905b8154815290600101906020018083116107ac57829003601f168201915b505050505081526020016002820160009054906101000a900460ff161515151581525050905060405180606001604052808481526020018381526020018260400151151581525060016000858152602001908152602001600020600082015181600001556020820151816001019080519060200190610849929190610a0e565b5060408201518160020160006101000a81548160ff0219169083151502179055509050507fa19b2211615873e8fbe860460ba43e467bf8f2d28d98b023144fc0739af842cd82846040518080602001838152602001828103825284818151815260200191508051906020019080838360005b838110156108d65780820151818401526020810190506108bb565b50505050905090810190601f1680156109035780820380516001836020036101000a031916815260200191505b50935050505060405180910390a1505050565b60005481565b6001602052806000526040600020600091509050806000015490806001018054600181600116156101000203166002900480601f0160208091040260200160405190810160405280929190818152602001828054600181600116156101000203166002900480156109ce5780601f106109a3576101008083540402835291602001916109ce565b820191906000526020600020905b8154815290600101906020018083116109b157829003601f168201915b5050505050908060020160009054906101000a900460ff16905083565b604051806060016040528060008152602001606081526020016000151581525090565b828054600181600116156101000203166002900490600052602060002090601f016020900481019282601f10610a4f57805160ff1916838001178555610a7d565b82800160010185558215610a7d579182015b82811115610a7c578251825591602001919060010190610a61565b5b509050610a8a9190610ad6565b5090565b50805460018160011615610100020316600290046000825580601f10610ab45750610ad3565b601f016020900490600052602060002090810190610ad29190610ad6565b5b50565b610af891905b80821115610af4576000816000905550600101610adc565b5090565b9056fea265627a7a72315820a99b2dbbe9b28293ec50ee228ac6f4a2545ffe285570235691eb31d09419e15c64736f6c63430005100032",
  "source": "// SPDX-License-Identifier: GPL-3.0\npragma solidity ^0.5.16;\n\ncontract TodoContract {\n  uint256 public taskCount = 0;\n\n  struct Task {\n    uint256 index;\n    string taskName;\n    bool isComplete;\n  }\n\n  mapping(uint256 => Task) public todos;\n  event TaskCreated(string task, uint256 taskNumber);\n  event TaskUpdated(string task, uint256 taskId);\n  event TaskIsCompleteToggled(string task, uint256 taskId, bool isComplete);\n  event TaskDeleted(uint256 taskNumber);\n\n  function createTask(string memory _taskName) public {\n    todos[taskCount] = Task(taskCount, _taskName, false);\n    taskCount++;\n    emit TaskCreated(_taskName, taskCount - 1);\n  }\n\n  function updateTask(uint256 _taskId, string memory _taskName) public {\n    Task memory currTask = todos[_taskId];\n    todos[_taskId] = Task(_taskId, _taskName, currTask.isComplete);\n    emit TaskUpdated(_taskName, _taskId);\n  }\n\n  function deleteTask(uint256 _taskId) public {\n    delete todos[_taskId];\n    emit TaskDeleted(_taskId);\n  }\n\n  function toggleComplete(uint256 _taskId) public {\n    Task memory currTask = todos[_taskId];\n    todos[_taskId] = Task(_taskId, currTask.taskName, !currTask.isComplete);\n    emit TaskIsCompleteToggled(currTask.taskName, _taskId, !currTask.isComplete);\n  }\n\n}\n",
  "sourcePath": "/home/syoo/Documents/AndroidStudioProjects/todo_dapp/smartcontract/contracts/TodoContract.sol",
  "compiler": {
    "name": "solc",
    "version": "0.5.16+commit.9c3226ce.Emscripten.clang"
  },
  "schemaVersion": "3.4.3",
  "updatedAt": "2022-10-09T12:38:52.316Z",
  "devdoc": {
    "methods": {}
  },
  "userdoc": {
    "methods": {}
  }
}